{
  "_format": "hh-sol-artifact-1",
  "contractName": "EthazonShop",
  "sourceName": "contracts/Order.sol",
  "abi": [
    {
      "inputs": [],
      "name": "cancelOrder",
      "outputs": [],
      "stateMutability": "nonpayable",
      "type": "function"
    },
    {
      "inputs": [],
      "name": "confirmOrder",
      "outputs": [],
      "stateMutability": "nonpayable",
      "type": "function"
    },
    {
      "inputs": [],
      "name": "getBalance",
      "outputs": [
        {
          "internalType": "uint256",
          "name": "",
          "type": "uint256"
        }
      ],
      "stateMutability": "view",
      "type": "function"
    },
    {
      "inputs": [
        {
          "internalType": "address",
          "name": "customer",
          "type": "address"
        }
      ],
      "name": "getOrder",
      "outputs": [
        {
          "components": [
            {
              "internalType": "bool",
              "name": "isValidEthazonOrder",
              "type": "bool"
            },
            {
              "internalType": "string",
              "name": "customerName",
              "type": "string"
            },
            {
              "internalType": "string",
              "name": "shippingAddress",
              "type": "string"
            },
            {
              "internalType": "bool",
              "name": "hasConfirmed",
              "type": "bool"
            }
          ],
          "internalType": "struct EthazonShop.EthazonOrder",
          "name": "",
          "type": "tuple"
        }
      ],
      "stateMutability": "view",
      "type": "function"
    },
    {
      "inputs": [
        {
          "internalType": "string",
          "name": "_customerName",
          "type": "string"
        },
        {
          "internalType": "string",
          "name": "_shippingAddress",
          "type": "string"
        }
      ],
      "name": "makeOrder",
      "outputs": [],
      "stateMutability": "payable",
      "type": "function"
    }
  ],
  "bytecode": "0x608060405234801561001057600080fd5b506116a7806100206000396000f3fe60806040526004361061004a5760003560e01c806312065fe01461004f5780636a8165481461007a5780636eba2b1314610091578063a00f198a146100ce578063dc4c9e95146100e5575b600080fd5b34801561005b57600080fd5b50610064610101565b6040516100719190610c59565b60405180910390f35b34801561008657600080fd5b5061008f61010b565b005b34801561009d57600080fd5b506100b860048036038101906100b39190610ce6565b6104aa565b6040516100c59190610e28565b60405180910390f35b3480156100da57600080fd5b506100e361065c565b005b6100ff60048036038101906100fa9190610f7f565b6108f7565b005b6000600154905090565b3360008060008373ffffffffffffffffffffffffffffffffffffffff1673ffffffffffffffffffffffffffffffffffffffff168152602001908152602001600020600101805461015a90611026565b90501161019c576040517f08c379a0000000000000000000000000000000000000000000000000000000008152600401610193906110b4565b60405180910390fd5b60008060008373ffffffffffffffffffffffffffffffffffffffff1673ffffffffffffffffffffffffffffffffffffffff16815260200190815260200160002060020180546101ea90611026565b90501161022c576040517f08c379a000000000000000000000000000000000000000000000000000000000815260040161022390611120565b60405180910390fd5b6000808273ffffffffffffffffffffffffffffffffffffffff1673ffffffffffffffffffffffffffffffffffffffff16815260200190815260200160002060000160009054906101000a900460ff166102ba576040517f08c379a00000000000000000000000000000000000000000000000000000000081526004016102b19061118c565b60405180910390fd5b6000808273ffffffffffffffffffffffffffffffffffffffff1673ffffffffffffffffffffffffffffffffffffffff16815260200190815260200160002060030160009054906101000a900460ff1615610349576040517f08c379a0000000000000000000000000000000000000000000000000000000008152600401610340906111f8565b60405180910390fd5b600067016345785d8a000090506000803373ffffffffffffffffffffffffffffffffffffffff1673ffffffffffffffffffffffffffffffffffffffff16815260200190815260200160002060030160009054906101000a900460ff16156103ec5760006103eb576040517f08c379a00000000000000000000000000000000000000000000000000000000081526004016103e290611264565b60405180910390fd5b5b60008060003373ffffffffffffffffffffffffffffffffffffffff1673ffffffffffffffffffffffffffffffffffffffff16815260200190815260200160002060000160006101000a81548160ff0219169083151502179055503373ffffffffffffffffffffffffffffffffffffffff166108fc829081150290604051600060405180830381858888f1935050505015801561048c573d6000803e3d6000fd5b50806001600082825461049f91906112b3565b925050819055505050565b6104b2610c14565b6000808373ffffffffffffffffffffffffffffffffffffffff1673ffffffffffffffffffffffffffffffffffffffff1681526020019081526020016000206040518060800160405290816000820160009054906101000a900460ff1615151515815260200160018201805461052690611026565b80601f016020809104026020016040519081016040528092919081815260200182805461055290611026565b801561059f5780601f106105745761010080835404028352916020019161059f565b820191906000526020600020905b81548152906001019060200180831161058257829003601f168201915b505050505081526020016002820180546105b890611026565b80601f01602080910402602001604051908101604052809291908181526020018280546105e490611026565b80156106315780601f1061060657610100808354040283529160200191610631565b820191906000526020600020905b81548152906001019060200180831161061457829003601f168201915b505050505081526020016003820160009054906101000a900460ff1615151515815250509050919050565b3360008060008373ffffffffffffffffffffffffffffffffffffffff1673ffffffffffffffffffffffffffffffffffffffff16815260200190815260200160002060010180546106ab90611026565b9050116106ed576040517f08c379a00000000000000000000000000000000000000000000000000000000081526004016106e4906110b4565b60405180910390fd5b60008060008373ffffffffffffffffffffffffffffffffffffffff1673ffffffffffffffffffffffffffffffffffffffff168152602001908152602001600020600201805461073b90611026565b90501161077d576040517f08c379a000000000000000000000000000000000000000000000000000000000815260040161077490611120565b60405180910390fd5b6000808273ffffffffffffffffffffffffffffffffffffffff1673ffffffffffffffffffffffffffffffffffffffff16815260200190815260200160002060000160009054906101000a900460ff1661080b576040517f08c379a00000000000000000000000000000000000000000000000000000000081526004016108029061118c565b60405180910390fd5b6000808273ffffffffffffffffffffffffffffffffffffffff1673ffffffffffffffffffffffffffffffffffffffff16815260200190815260200160002060030160009054906101000a900460ff161561089a576040517f08c379a0000000000000000000000000000000000000000000000000000000008152600401610891906111f8565b60405180910390fd5b60016000803373ffffffffffffffffffffffffffffffffffffffff1673ffffffffffffffffffffffffffffffffffffffff16815260200190815260200160002060030160006101000a81548160ff02191690831515021790555050565b67016345785d8a0000341015610942576040517f08c379a000000000000000000000000000000000000000000000000000000000815260040161093990611333565b60405180910390fd5b33600067016345785d8a00003461095991906112b3565b905060008111156109ac578173ffffffffffffffffffffffffffffffffffffffff166108fc829081150290604051600060405180830381858888f193505050501580156109aa573d6000803e3d6000fd5b505b60008451116109f0576040517f08c379a00000000000000000000000000000000000000000000000000000000081526004016109e7906110b4565b60405180910390fd5b6000835111610a34576040517f08c379a0000000000000000000000000000000000000000000000000000000008152600401610a2b90611120565b60405180910390fd5b6000803373ffffffffffffffffffffffffffffffffffffffff1673ffffffffffffffffffffffffffffffffffffffff16815260200190815260200160002060000160009054906101000a900460ff161580610ada57506000803373ffffffffffffffffffffffffffffffffffffffff1673ffffffffffffffffffffffffffffffffffffffff16815260200190815260200160002060030160009054906101000a900460ff165b610b19576040517f08c379a0000000000000000000000000000000000000000000000000000000008152600401610b109061139f565b60405180910390fd5b6040518060800160405280600115158152602001858152602001848152602001600015158152506000803373ffffffffffffffffffffffffffffffffffffffff1673ffffffffffffffffffffffffffffffffffffffff16815260200190815260200160002060008201518160000160006101000a81548160ff0219169083151502179055506020820151816001019081610bb3919061156b565b506040820151816002019081610bc9919061156b565b5060608201518160030160006101000a81548160ff02191690831515021790555090505067016345785d8a000060016000828254610c07919061163d565b9250508190555050505050565b604051806080016040528060001515815260200160608152602001606081526020016000151581525090565b6000819050919050565b610c5381610c40565b82525050565b6000602082019050610c6e6000830184610c4a565b92915050565b6000604051905090565b600080fd5b600080fd5b600073ffffffffffffffffffffffffffffffffffffffff82169050919050565b6000610cb382610c88565b9050919050565b610cc381610ca8565b8114610cce57600080fd5b50565b600081359050610ce081610cba565b92915050565b600060208284031215610cfc57610cfb610c7e565b5b6000610d0a84828501610cd1565b91505092915050565b60008115159050919050565b610d2881610d13565b82525050565b600081519050919050565b600082825260208201905092915050565b60005b83811015610d68578082015181840152602081019050610d4d565b60008484015250505050565b6000601f19601f8301169050919050565b6000610d9082610d2e565b610d9a8185610d39565b9350610daa818560208601610d4a565b610db381610d74565b840191505092915050565b6000608083016000830151610dd66000860182610d1f565b5060208301518482036020860152610dee8282610d85565b91505060408301518482036040860152610e088282610d85565b9150506060830151610e1d6060860182610d1f565b508091505092915050565b60006020820190508181036000830152610e428184610dbe565b905092915050565b600080fd5b600080fd5b7f4e487b7100000000000000000000000000000000000000000000000000000000600052604160045260246000fd5b610e8c82610d74565b810181811067ffffffffffffffff82111715610eab57610eaa610e54565b5b80604052505050565b6000610ebe610c74565b9050610eca8282610e83565b919050565b600067ffffffffffffffff821115610eea57610ee9610e54565b5b610ef382610d74565b9050602081019050919050565b82818337600083830152505050565b6000610f22610f1d84610ecf565b610eb4565b905082815260208101848484011115610f3e57610f3d610e4f565b5b610f49848285610f00565b509392505050565b600082601f830112610f6657610f65610e4a565b5b8135610f76848260208601610f0f565b91505092915050565b60008060408385031215610f9657610f95610c7e565b5b600083013567ffffffffffffffff811115610fb457610fb3610c83565b5b610fc085828601610f51565b925050602083013567ffffffffffffffff811115610fe157610fe0610c83565b5b610fed85828601610f51565b9150509250929050565b7f4e487b7100000000000000000000000000000000000000000000000000000000600052602260045260246000fd5b6000600282049050600182168061103e57607f821691505b60208210810361105157611050610ff7565b5b50919050565b600082825260208201905092915050565b7f437573746f6d6572206e616d6520697320656d70747900000000000000000000600082015250565b600061109e601683611057565b91506110a982611068565b602082019050919050565b600060208201905081810360008301526110cd81611091565b9050919050565b7f5368697070696e67206164647265737320697320656d70747900000000000000600082015250565b600061110a601983611057565b9150611115826110d4565b602082019050919050565b60006020820190508181036000830152611139816110fd565b9050919050565b7f4f72646572206973204e4f542076616c69640000000000000000000000000000600082015250565b6000611176601283611057565b915061118182611140565b602082019050919050565b600060208201905081810360008301526111a581611169565b9050919050565b7f4f726465722068617320616c7265616479206265656e20636f6e6669726d6564600082015250565b60006111e2602083611057565b91506111ed826111ac565b602082019050919050565b60006020820190508181036000830152611211816111d5565b9050919050565b7f43616e6e6f742063616e63656c206120636f6e6669726d6564206f7264657200600082015250565b600061124e601f83611057565b915061125982611218565b602082019050919050565b6000602082019050818103600083015261127d81611241565b9050919050565b7f4e487b7100000000000000000000000000000000000000000000000000000000600052601160045260246000fd5b60006112be82610c40565b91506112c983610c40565b92508282039050818111156112e1576112e0611284565b5b92915050565b7f4e6f7420656e6f7567682045746865722073656e740000000000000000000000600082015250565b600061131d601583611057565b9150611328826112e7565b602082019050919050565b6000602082019050818103600083015261134c81611310565b9050919050565b7f437573746f6d65722068617320616e20616374697665206f7264657200000000600082015250565b6000611389601c83611057565b915061139482611353565b602082019050919050565b600060208201905081810360008301526113b88161137c565b9050919050565b60008190508160005260206000209050919050565b60006020601f8301049050919050565b600082821b905092915050565b6000600883026114217fffffffffffffffffffffffffffffffffffffffffffffffffffffffffffffffff826113e4565b61142b86836113e4565b95508019841693508086168417925050509392505050565b6000819050919050565b600061146861146361145e84610c40565b611443565b610c40565b9050919050565b6000819050919050565b6114828361144d565b61149661148e8261146f565b8484546113f1565b825550505050565b600090565b6114ab61149e565b6114b6818484611479565b505050565b5b818110156114da576114cf6000826114a3565b6001810190506114bc565b5050565b601f82111561151f576114f0816113bf565b6114f9846113d4565b81016020851015611508578190505b61151c611514856113d4565b8301826114bb565b50505b505050565b600082821c905092915050565b600061154260001984600802611524565b1980831691505092915050565b600061155b8383611531565b9150826002028217905092915050565b61157482610d2e565b67ffffffffffffffff81111561158d5761158c610e54565b5b6115978254611026565b6115a28282856114de565b600060209050601f8311600181146115d557600084156115c3578287015190505b6115cd858261154f565b865550611635565b601f1984166115e3866113bf565b60005b8281101561160b578489015182556001820191506020850194506020810190506115e6565b868310156116285784890151611624601f891682611531565b8355505b6001600288020188555050505b505050505050565b600061164882610c40565b915061165383610c40565b925082820190508082111561166b5761166a611284565b5b9291505056fea2646970667358221220e1b95bffe57556ce082b113b7cddf2ae012077b998e649f7a8ccf61f5c44944364736f6c63430008110033",
  "linkReferences": {},
  "deployedLinkReferences": {}
}